:100000000C94FE000C941B010C941B010C941B011E
:100010000C941B010C941B010C941B010C941B01F0
:100020000C941B010C941B010C941B010C941B01E0
:100030000C941B010C941B010C941B010C941B01D0
:100040000C941B010C941B010C941B010C941B01C0
:100050000C941B010C941B010C941B010C941B01B0
:100060000C941B010C941B010C941B010C941B01A0
:100070000C941B010C941B010C941B010C941B0190
:100080000C941B010C941B010C941B010C941B0180
:100090000C941B010C941B010C941B010C941B0170
:1000A0000C941B010C941B010C941B010C941B0160
:1000B0000C941B010C941B010C941B010C941B0150
:1000C0000C941B010C941B010C941B010C941B0140
:1000D0000C941B010C941B010C941B010C941B0130
:1000E0000C941B010C941B010C942C0A0C941B0106
:1000F0000C94540A0C941B010C941B010C941B01CE
:100100000C941B010C941B010C941B010C941B01FF
:100110000C941B010C941B010C941B010C941B01EF
:100120000C941B010C941B010C941B010C941B01DF
:100130000C941B010C94DD090C941B010C941B0105
:100140000C941B010C941B010C941B010C941B01BF
:100150000C941B010C941B010C941B010C941B01AF
:100160000C941B010C941B010C941B010C941B019F
:100170000C941B010C941B010C941B010C941B018F
:100180000C941B010C941B010C941B010C941B017F
:100190000C941B010C941B010C941B010C941B016F
:1001A0000C941B010C941B010C941B010C941B015F
:1001B0000C941B010C941B010C941B010C941B014F
:1001C0000C941B010C941B010C941B010C941B013F
:1001D0000C941B010C941B010C941B010C941B012F
:1001E0000C941B010C941B010C941B010C941B011F
:1001F0000C941B010C941B010C941B0111241FBEB9
:10020000CFEFCDBFDFE2DEBF10E2A0E0B0E2E0E77B
:10021000F6E102C005900D92A431B107D9F722E2B0
:10022000A4E1B0E201C01D92A438B207E1F70E9438
:1002300089080C94360B0C9400003BB78BBFFB0174
:1002400086913BBF08953BB78BBFFB018791969189
:100250003BBF089542E073C041E071C08093C0018C
:1002600088278093C1018093C20147E058D0CB0119
:1002700008958093C40148E052C08091D001089550
:100280003BB748E10C9421403BB74AE10C94214034
:100290003BB740E20C9421403BB78BBFCB0142E21D
:1002A0000C9421403BB70B0143E20C9421403BB737
:1002B0006BBFFA0119BEDC0140E04093CA0150E077
:1002C000879197918D939D935A95D1F73BBF089550
:1002D0003BB78BBFCB0144E20C9421403BB746E2D5
:1002E0000C9421403BB78BBFCB014AE20C942140D8
:1002F0003BB78BBFCB014CE20C9421403BB78BBF8B
:10030000CB014DE20C94214048E309C049E307C00A
:1003100028ED2093340021E02093CC0108954093F0
:10032000CA0128ED31E0209334003093CB01609175
:10033000C4017091C5018091C60199270895FC01FF
:100340004093CA01849108959C01662309F45CC01E
:10035000A0E087E092E4F901EA0FF11DE0814E2F61
:100360004827782F792776957068869540FF782FF3
:10037000E695FE2FF727572F592756955068769503
:10038000F0FF572FE695F52FFE27452F4927469575
:1003900040685695F0FF452F5E2F5695742F7527B0
:1003A000842F892786958068469570FF842F5695FF
:1003B000782F7527482F492746954068869570FF06
:1003C000482F5695742F7527842F89278695806826
:1003D000469570FF842F5695782F7527482F49270B
:1003E00046954068869570FF482F5695742F71701A
:1003F000842F8927869580684695751301C0842FC0
:10040000AF5FA613A8CF089587E00895FC01EC57CD
:10041000FF4F1082FC0110821182E55FFE4F1082B7
:10042000E458F10910821182EA57FF4F10821092AE
:10043000D2201092D3201092D6201092E220109257
:10044000E32081E08093E1201092D7201092D82001
:100450001092E8201092E9201092E4201092E520FA
:100460001092E6201092E7201092B0201092B12056
:100470001092AF201092D1201092AD201092AE2099
:100480008093BC201092142095E09093A920809333
:10049000AA2008950F931F93CF93DF93EC018C0153
:1004A0000C571F4FF8018081882339F0488159810A
:1004B000CA0101978F37910528F0DF91CF911F91E5
:1004C0000F910895BE016E5F7F4FCE01825F9E4FF8
:1004D0000E942D0BFE01E057FE4F88818083E35878
:1004E000F10981E0808318821982F8011082DF917E
:1004F000CF911F910F910895EF92FF920F931F9349
:10050000CF93DF9300D0CDB7DEB77C01362F81E0EB
:100510008093142087010C571F4FD8012C91211173
:100520000BC0603101F10F900F90DF91CF911F91BF
:100530000F91FF90EF9008952130C9F0223099F784
:10054000603189F0F701808191818038910558F7F9
:10055000AC014F5F5F4F408351838E0D9F1DDC01C7
:1005600012966C93E0CF81E0F8018083DCCF60319C
:1005700049F1F70140815181CA0101978F379105F7
:10058000A8F4B7016E5F7F4FC701825F9E4F29833A
:100590003A830E942D0BD7018C91F701E057FE4F53
:1005A0008083E358F109298120833A8182E090E039
:1005B000F7018083918380E18283338382E0D801D5
:1005C0008C93B1CFD7018D919C9111978038910573
:1005D000A8F7AC014F5F5F4F4D935C938E0D9F1D4D
:1005E000FC016283EBCF0F931F93CF93DF93CDB7C3
:1005F000DEB72697CDBFDEBF8C0180E1898381EC19
:100600008A8381E28B8382E28C838091AF208D8309
:1006100065E0CE0101960E94A4018E838091AF20F7
:100620008F5F803130F58093AF20F801E55FFE4F9A
:100630008081811116C0D801A757BF4F86E0FE0107
:10064000319601900D928A95E1F7F801EB57FF4F33
:1006500086E090E0808391833296108211820E941E
:10066000960A2696CDBFDEBFDF91CF911F910F91E5
:1006700008951092AF20D9CF0F931F93CF93DF939C
:10068000CDB7DEB72997CDBFDEBF8C0180E189836E
:1006900081E08A8384E28B8380E38C838091D620FF
:1006A0008D838091D720880F8E838091D8208F836F
:1006B0008091A920888768E0CE0101960E94A4015C
:1006C0008987F801E55FFE4F8081811116C0D8014E
:1006D000A757BF4F89E0FE01319601900D928A9590
:1006E000E1F7F801EB57FF4F89E090E080839183B9
:1006F0003296108211820E94960A2996CDBFDEBFE3
:10070000DF91CF911F910F9108958091AD2090912D
:10071000AE20009761F001978093AD209093AE20BA
:100720008091D4209091D520009749F4089510929B
:10073000BB208091D4209091D5200097B9F30197E8
:100740008093D4209093D52008952091A620809165
:10075000A720281761F088EC90E08093AD2090935B
:10076000AE202330A1F02130C9F0223009F00895E5
:100770008091BB20811125C08091D6208F5F86306B
:10078000E1F18093D62081E08093E220089580916A
:10079000B02091E089278093B02008959091BB20EC
:1007A0009F5F2BEA929F212D112426952695822F5B
:1007B000880F820F880F981B9093BB201092AB205C
:1007C00008958130E9F0823019F1833071F084307E
:1007D00051F1853061F68091AC208F5F8093AC2021
:1007E000843029F61092AC2008958091AA208F5F62
:1007F0008A3069F18093AA20C6CF1092D620C3CF49
:100800008091A8208F5F863059F08093A820BBCFBD
:100810008091A9208F5F8A30B9F08093A920B3CF4F
:100820001092A820B0CF8091AB208F5F8093AB2037
:10083000843009F09CCF8091BC2091E0892780937F
:10084000BC201092AB2008951092A9209CCF10924A
:10085000AA2099CFEF92FF920F931F93CF93DF932C
:100860007C01EB018A016FEF640FCE010E94A401AD
:10087000FE01E00FF11F31979081891741F080E070
:10088000DF91CF911F910F91FF90EF900895898193
:10089000807F2A81922F907F0430110580F430E010
:1008A00020E0903C81F0911102C0803201F181E0A2
:1008B000DF91CF911F910F91FF90EF9008953B81B1
:1008C0002F70903C81F7803291F71092B3201092F4
:1008D000B42081E08093B220323209F46EC0363207
:1008E00031F72111E4CF1092D12081E0E1CF81E0F6
:1008F0008093E0203033D9F62E30C9F68C8190E019
:100900008093C1209093C2208D818093D9208E81C5
:1009100090E0982F88278093DC209093DD202F8112
:10092000822B8093DC209093DD20888590E0982FA7
:1009300088278093DA209093DB202985822B80936F
:10094000DA209093DB208A8590E0982F8827809387
:10095000C9209093CA202B85822B8093C920909325
:10096000CA208C8590E0982F88278093CB20909385
:10097000CC202D85822B8093CB209093CC208E850C
:1009800090E0982F88278093CD209093CE202F85BC
:10099000822B8093CD209093CE20888990E0982F51
:1009A00088278093CF209093D0202989822B809311
:1009B000CF209093D02081E063CF223009F077CF11
:1009C0008091A7208093A6208C8183708093A7209C
:1009D000C7010E94A50381E053CF5F926F927F927F
:1009E0008F929F92AF92BF92CF92DF92EF92FF923F
:1009F0000F931F93CF93DF93CDB7DEB76097CDBF33
:100A0000DEBF8C013091BD202091BE209091BF208F
:100A10008091C020E090C120F090C220C090C420FE
:100A2000D090BB2044E0D41609F467C045E0D4164A
:100A300009F42BC141E0D41609F42EC142E0D416CA
:100A400009F43BC143E0D41609F430C1D1103CC1D4
:100A50008090C5209090C620A090C720B090C8205C
:100A600081149104A104B10409F433C1512CBEEFE7
:100A70007B2EC501B40124E630E040E050E00E9446
:100A8000C90A622E24E6629EC0011124AA2797FD9E
:100A9000A095BA2F881A990AAA0ABB0AC501B401FF
:100AA0002AE030E040E050E00E94C90A422F2AE0EC
:100AB000429FC0011124AA2797FDA095BA2F881A3A
:100AC000990AAA0ABB0A8091A820813009F434C18E
:100AD000823009F44BC1833009F44DC1843009F4EC
:100AE0005AC1853009F45CC1863009F467C1852D8F
:100AF00086294295407F482906C04091AB20406C32
:100B000089EAE0EF7E2E7B868C874D8780E18983A2
:100B100081EC8A8389E28B8386E28C838091D62064
:100B2000882309F495C080FDADC090E320E081FFEB
:100B3000922F82FD906C9D838091BC20882309F4C4
:100B400084C020E380E09091B1209111822F909198
:100B5000B0209111806C8E8381E08F83D1106BC0A7
:100B60004091C5205091C6206091C7207091C82047
:100B7000452B462B472B29F48091AC20882309F480
:100B800092C097013695279536952795ABE7B4E146
:100B90000E940A0B96958795C886982F906C998726
:100BA000970144E6849F201931091124ADECBCEC77
:100BB0000E940A0B969587959695879596958795A9
:100BC000482F4295407F97010E940A0B9695879582
:100BD00096958795969587959C01220F331F880FD0
:100BE000991F880F991F880F991F280F391FE21A24
:100BF000F30A4E294A876DE0CE0101960E94A401B6
:100C00008E87F801E55FFE4F8081882319F180E02F
:100C10006096CDBFDEBFDF91CF911F910F91FF9006
:100C2000EF90DF90CF90BF90AF909F908F907F908C
:100C30006F905F900895C8868FE0898740E1D49EC9
:100C4000C00111248C608A87D6CF2CE38CE07BCF47
:100C500093E071CFD801A757BF4F8EE0FE013196C8
:100C600001900D928A95E1F7F801EB57FF4F8EE066
:100C700090E0808391833296108211820E94960ABE
:100C800081E0C6CF9CE32CE052CF4091AC20406C79
:100C900083EA70EF772E37CF4091A820406C85EA29
:100CA00060EF762E30CF81E38F836BCF4091AA2007
:100CB000406C89EA30EF732E26CF4091A920406C1A
:100CC00089EA50EF752E1FCF4CEC8CECECEF7E2EAA
:100CD0001ACF4091AC20411142C08090B920909031
:100CE000BA20AA2497FCA094BA2CB7FC49C09CEF68
:100CF000792E88EE881683E09806A104B10460F18D
:100D0000C501B40128EE33E040E050E00E94C90A7A
:100D100048EE53E0249FC001259F900D1124AA277F
:100D200097FDA095BA2F881A990AAA0ABB0A522ED3
:100D3000529480EF58229DCE2091B5203091B6205C
:100D4000ADECBCEC0E940A0B7C01F694E794F6949F
:100D5000E794F694E794CBCEA0EC5A2E8ACE41309D
:100D600021F1832E922EA92EB82EBFCFE090C9205C
:100D7000F090CA20BCCEE090CB20F090CC20B7CE33
:100D8000B094A09490948094811C911CA11CB11CDF
:100D90002AEF722EAECFE090CD20F090CE20A7CEDD
:100DA000E090CF20F090D020A2CE8090B7209090FD
:100DB000B820AA2497FCA094BA2C97CF8091B72092
:100DC0009091B8206AE070E00E94B50A7B018FCE56
:100DD00010920006E0E0F2E0908191609083118231
:100DE000828382E0848381E080A361A308951092CE
:100DF0000006E0E0F2E090819160908390E19183C1
:100E00008260828382E0848380A3646061A308950A
:100E100080912002806880932002809123028F704D
:100E2000E1F380911002909111022FE020930602CD
:100E3000089580915000826080935000809151000D
:100E400081FFFCCF88ED84BF81E0809340008091DA
:100E500050008E7F809350008091B4008C7F8093EF
:100E6000B40008954F925F926F927F928F929F92FB
:100E7000AF92BF92CF92DF92EF92FF920F931F93A8
:100E8000CF93DF93CDB7DEB72897CDBFDEBF2091DC
:100E90000020222309F402C100E010E0412C512C73
:100EA0003201C12CD12C7601812C912C5401198254
:100EB0001A821B821C8268E380E10E94E8060E947D
:100EC000080729813A814B815C81280F391F411D18
:100ED000511D29833A834B835C8368E180E10E9442
:100EE000E8060E940807880E991EA11CB11C60E14B
:100EF00080E10E94E8060E940807C80ED91EE11C86
:100F0000F11C68E580E10E94F7060E940807AA2705
:100F100097FDA095BA2F480E591E6A1E7B1E0F5FC3
:100F20001F4F20910020822F90E00817190718F218
:100F3000822F90E0A0E0B0E08D839E83AF83B887DE
:100F400069817A818B819C812D813E814F81588579
:100F50000E94C90A29833A834B835C8320936520CE
:100F6000309366204093672050936820C301B201FC
:100F70002D813E814F8158850E94EB0A29013A015B
:100F80002093592030935A2040935B2050935C204B
:100F9000C501B4012D813E814F8158850E94C90A47
:100FA00020936D2030936E2040936F2050937020DB
:100FB000C701B6012D813E814F8158850E94C90A23
:100FC0002093692030936A2040936B2050936C20CB
:100FD00080914120909142200196809341209093EE
:100FE00042208091612090916220A0916320B09175
:100FF000642029813A814B815C81820F931FA41F59
:10100000B51F8093612090936220A0936320B093DA
:1010100064208091552090915620A0915720B09146
:101020005820840D951DA61DB71D809355209093C3
:101030005620A0935720B093582080914B20909138
:101040004C20019680934B2090934C208091472018
:1010500090914820A0914920B0914A20840D951D7F
:10106000A61DB71D8093472090934820A093492048
:10107000B0934A202896CDBFDEBFDF91CF911F915C
:101080000F91FF90EF90DF90CF90BF90AF909F9027
:101090008F907F906F905F904F900895412C512CCE
:1010A0003201C12CD12C7601812C912C5401198252
:1010B0001A821B821C823CCF80B50E942A0190E0DC
:1010C000A0E0B0E080937D2090937E20A0937F20CD
:1010D000B093802081B50E942A0190E0982F882744
:1010E000AA2797FDA095BA2F40917D2050917E2090
:1010F00060917F2070918020482B592B6A2B7B2B8D
:1011000040937D2050937E2060937F2070938020B9
:1011100008950E9419070E94180A82EF90E20E9427
:1011200006028FEF8093400627E0209340088DE071
:101130008093430081E08093000480E090E88093F6
:101140000C0490930D042093000980E491E08093B7
:1011500026099093270983E08093060986E8809307
:10116000A20088ED84BF8091A2008F7B8093A200B3
:1011700078940E945C0884E08093912088E691E056
:1011800080930C2090930D20C0E068EEC62E63E0A3
:10119000D62EE12CF12C14E6D0E8BB24B39400E465
:1011A0006EC08D3424E09207A105B10508F480C01B
:1011B0008F302FE09207A105B10508F0C2C02C01C5
:1011C0003D012CE4421A24E0520A61087108C3016F
:1011D000B201660F771F881F991F660F771F881F40
:1011E000991F660F771F881F991F640D751D861D37
:1011F000971D660F771F881F991F660F771F881F1F
:10120000991FA70196010E94C90A20939F208091EF
:101210009F208093D7208091B220811102C010922C
:10122000D6208091DA209091DB208093B520909396
:10123000B6208091DC209091DD208093B92090939E
:10124000BA2080919F208093C4202091D920809142
:101250009A2090919B20A0919C20B0919D20822B60
:101260008093C5209093C620A093C720B093C82038
:101270008091600890916108853F9140E0F40E9460
:10128000320780916D2090916E20A0916F20B091D7
:101290007020AC01BD014855524061097109453EBD
:1012A0005C406105710508F47CCF1092D720B3CF64
:1012B00010929F20ACCF109260081092610880912C
:1012C0001420882309F453C01092142082EF90E276
:1012D0000E9485038091FF21811136C0D09346067C
:1012E0008091B3209091B42001968093B320909385
:1012F000B4208B30910508F03FC000934606C39799
:1013000060F0B092BC201092B22010921620109281
:101310009F201092A3201092A0208091DE20909117
:10132000DF20459710F01092E020CF5FC23069F1C6
:10133000C43081F1C63099F1C83009F0A0CFC0E0C7
:101340009ECF10939F2063CF4091822250E060E0B7
:1013500072E282EF90E20E942A041092822210929E
:10136000FF21882309F4BACFD093450688CF82EFB6
:1013700090E20E944A02AACF0E94080A0093450602
:101380008091B3209091B420BACF82EF90E20E9476
:10139000F30275CF82EF90E20E94ED0470CF82EFEE
:1013A00090E20E943C038091DE209091DF20019624
:1013B0008093DE209093DF2062CF1F920F920FB6B2
:1013C0000F9211242F933F938F939F9383E290E08A
:1013D00080931120909312208091112090911220DF
:1013E00020910C2030910D202817390740F480916E
:1013F00011209091122080930C2090930D209F91AA
:101400008F913F912F910F900FBE0F901F901895C5
:10141000809113208C3D30F088EC809313208093D2
:10142000A60A08958F5F809313208093A60A0895DB
:1014300088E0E0E8F6E08183E0EAFAE01382809158
:10144000A520878380911320868383E0858388E1AC
:1014500084838CE3838308951F920F920FB60F92BB
:1014600011242F933F934F935F936F937F938F93A9
:101470009F93AF93BF93EF93FF936091A00A82EF86
:1014800090E20E947C02FF91EF91BF91AF919F91FA
:101490008F917F916F915F914F913F912F910F901D
:1014A0000FBE0F901F9018951F920F920FB60F92BC
:1014B00011242F933F938F939F93EF93FF938091EA
:1014C000FD21813061F1833069F01092FD21FF919F
:1014D000EF919F918F913F912F910F900FBE0F90A1
:1014E0001F9018958091792190917A2120917721F0
:1014F000309178212817390741F3FC01E558FE4D5A
:1015000020812093A00A2081203119F421E020932A
:10151000FD2101968093792190937A21D8CF80E1A3
:101520008093A00A83E08093FD21D1CF8091FD219B
:1015300081111AC083E08093FD21809179219091DF
:101540007A2120917721309178212817390751F09D
:1015500020917B212093A00A01968093792190937A
:101560007A2108951092FD21089597FB072E16F415
:10157000009407D077FD09D00E94190B07FC05D015
:101580003EF4909581959F4F0895709561957F4F9A
:101590000895A1E21A2EAA1BBB1BFD010DC0AA1FB4
:1015A000BB1FEE1FFF1FA217B307E407F50720F0CC
:1015B000A21BB30BE40BF50B661F771F881F991F47
:1015C0001A9469F760957095809590959B01AC0190
:1015D000BD01CF010895052E97FB1EF400940E94D3
:1015E000020B57FD07D00E94C90A07FC03D04EF436
:1015F0000C94020B50954095309521953F4F4F4FDD
:101600005F4F089590958095709561957F4F8F4FAE
:101610009F4F0895A29FB001B39FC001A39F700D7B
:10162000811D1124911DB29F700D811D1124911DEA
:101630000895AA1BBB1B51E107C0AA1FBB1FA61719
:10164000B70710F0A61BB70B881F991F5A95A9F76B
:1016500080959095BC01CD010895FB01DC0102C08D
:1016600001900D9241505040D8F70895F894FFCF63
:101670000828000A0A010391950195019501E204E9
:04168000012300C87A
:10800000EE27FF2719BEDC0143E24093CA0150E886
:108010002DE90D901D9020933400E89532965A95E5
:10802000C1F7112408953BB78BBFCB0145E20C94F7
:1080300021402091CF0127FDFCCF22272093CA01A8
:108040000895FC014093CA012DE920933400E8957E
:0680500011243BBF08955E
:00000001FF
