:100000000C94FE000C941B010C941B010C941B011E
:100010000C941B010C941B010C941B010C941B01F0
:100020000C941B010C941B010C941B010C941B01E0
:100030000C941B010C941B010C941B010C941B01D0
:100040000C941B010C941B010C941B010C941B01C0
:100050000C941B010C941B010C941B010C941B01B0
:100060000C941B010C941B010C941B010C941B01A0
:100070000C941B010C941B010C941B010C941B0190
:100080000C941B010C941B010C941B010C941B0180
:100090000C941B010C941B010C941B010C941B0170
:1000A0000C941B010C941B010C941B010C941B0160
:1000B0000C941B010C941B010C941B010C941B0150
:1000C0000C941B010C941B010C941B010C941B0140
:1000D0000C941B010C941B010C941B010C941B0130
:1000E0000C941B010C941B010C940D150C941B011A
:1000F0000C9435150C941B010C941B010C941B01E2
:100100000C941B010C941B010C941B010C941B01FF
:100110000C941B010C941B010C941B010C941B01EF
:100120000C941B010C941B010C941B010C941B01DF
:100130000C941B010C94BE140C941B010C941B0119
:100140000C941B010C941B010C941B010C941B01BF
:100150000C941B010C941B010C941B010C941B01AF
:100160000C941B010C941B010C941B010C941B019F
:100170000C941B010C941B010C941B010C941B018F
:100180000C941B010C941B010C941B010C941B017F
:100190000C941B010C941B010C941B010C941B016F
:1001A0000C941B010C941B010C941B010C941B015F
:1001B0000C941B010C941B010C941B010C941B014F
:1001C0000C941B010C941B010C941B010C941B013F
:1001D0000C941B010C941B010C941B010C941B012F
:1001E0000C941B010C941B010C941B010C941B011F
:1001F0000C941B010C941B010C941B0111241FBEB9
:10020000CFEFCDBFDFE2DEBF10E2A0E0B0E2E8E674
:10021000FCE202C005900D92A631B107D9F722E2A7
:10022000A6E1B0E201C01D92A138B207E1F70E9439
:1002300049080C9432160C9400009C01662309F4C2
:100240005CC0A0E087E092E4F901EA0FF11DE081D3
:100250004E2F4827782F792776957068869540FF2E
:10026000782FE695FE2FF727572F59275695506878
:100270007695F0FF572FE695F52FFE27452F492756
:10028000469540685695F0FF452F5E2F5695742F82
:100290007527842F892786958068469570FF842F5F
:1002A0005695782F7527482F49274695406886959B
:1002B00070FF482F5695742F7527842F89278695B0
:1002C0008068469570FF842F5695782F7527482FA4
:1002D000492746954068869570FF482F5695742F9C
:1002E0007170842F8927869580684695751301C0A3
:1002F000842FAF5FA613A8CF089587E00895FC016F
:10030000EC57FF4F1082FC0110821182E55FFE4F17
:100310001082E458F10910821182EA57FF4F1082CF
:100320001092D7201092D8201092DB201092E72054
:100330001092E82081E08093E6201092DC20109259
:10034000DD201092ED201092EE201092E920109204
:10035000EA201092EB201092EC201092B52010921F
:10036000B6201092B4201092D6201092B220109293
:10037000B3208093C1201092162095E09093AE2078
:100380008093AF2008950F931F93CF93DF93EC01D9
:100390008C010C571F4FF8018081882339F0488168
:1003A0005981CA0101978F37910528F0DF91CF91CC
:1003B0001F910F910895BE016E5F7F4FCE01825F46
:1003C0009E4F0E942916FE01E057FE4F88818083D0
:1003D000E358F10981E0808318821982F8011082C4
:1003E000DF91CF911F910F910895EF92FF920F939C
:1003F0001F93CF93DF9300D0CDB7DEB77C01362FAC
:1004000081E08093162087010C571F4FD8012C9153
:1004100021110BC0603101F10F900F90DF91CF914E
:100420001F910F91FF90EF9008952130C9F0223075
:1004300099F7603189F0F7018081918180389105C9
:1004400058F7AC014F5F5F4F408351838E0D9F1D66
:10045000DC0112966C93E0CF81E0F8018083DCCF61
:10046000603149F1F70140815181CA0101978F370D
:100470009105A8F4B7016E5F7F4FC701825F9E4F61
:1004800029833A830E942916D7018C91F701E057FE
:10049000FE4F8083E358F109298120833A8182E06D
:1004A00090E0F7018083918380E18283338382E04F
:1004B000D8018C93B1CFD7018D919C911197803841
:1004C0009105A8F7AC014F5F5F4F4D935C938E0D84
:1004D0009F1DFC016283EBCF0F931F93CF93DF939C
:1004E000CDB7DEB72697CDBFDEBF8C0180E1898313
:1004F00081EC8A8381E28B8382E28C838091B420B9
:100500008D8365E0CE0101960E941D018E8380914E
:10051000B4208F5F803130F58093B420F801E55F1F
:10052000FE4F8081811116C0D801A757BF4F86E0CA
:10053000FE01319601900D928A95E1F7F801EB5793
:10054000FF4F86E090E08083918332961082118283
:100550000E9477152696CDBFDEBFDF91CF911F9108
:100560000F9108951092B420D9CF8091B22090912C
:10057000B320009761F001978093B2209093B3204D
:100580008091D9209091DA20009749F40895109233
:10059000C0208091D9209091DA200097B9F301977B
:1005A0008093D9209093DA2008952091AB208091F8
:1005B000AC20281761F088EC90E08093B2209093F3
:1005C000B3202330A1F02130C9F0223009F0089582
:1005D0008091C020811125C08091DB208F5F863003
:1005E000E1F18093DB2081E08093E7200895809102
:1005F000B52091E089278093B52008959091C0207F
:100600009F5F2BEA929F212D112426952695822FFC
:10061000880F820F880F981B9093C0201092B020F3
:1006200008958130E9F0823019F1833071F084301F
:1006300051F1853061F68091B1208F5F8093B120B8
:10064000843029F61092B12008958091AF208F5FF9
:100650008A3069F18093AF20C6CF1092DB20C3CFE0
:100660008091AD208F5F863059F08093AD20BBCF55
:100670008091AE208F5F8A30B9F08093AE20B3CFE7
:100680001092AD20B0CF8091B0208F5F8093B020CA
:10069000843009F09CCF8091C12091E0892780931C
:1006A000C1201092B02008951092AE209CCF1092DD
:1006B000AF2099CFEF92FF920F931F93CF93DF93C9
:1006C0007C01EB018A016FEF640FCE010E941D01D6
:1006D000FE01E00FF11F31979081891741F080E012
:1006E000DF91CF911F910F91FF90EF900895898135
:1006F000807F2A81922F907F0430110580F430E0B2
:1007000020E0903C81F0911102C0803201F181E043
:10071000DF91CF911F910F91FF90EF9008953B8152
:100720002F70903C81F7803291F71092B820109290
:10073000B92081E08093B720323209F46EC036329E
:1007400031F72111E4CF1092D62081E0E1CF81E092
:100750008093E5203033D9F62E30C9F68C8190E0B5
:100760008093C6209093C7208D818093DE208E8158
:1007700090E0982F88278093E1209093E2202F81AA
:10078000822B8093E1209093E220888590E0982F3F
:1007900088278093DF209093E0202985822B809307
:1007A000DF209093E0208A8590E0982F882780931F
:1007B000CE209093CF202B85822B8093CE209093B8
:1007C000CF208C8590E0982F88278093D02090931D
:1007D000D1202D85822B8093D0209093D1208E859F
:1007E00090E0982F88278093D2209093D3202F8554
:1007F000822B8093D2209093D320888990E0982FE9
:1008000088278093D4209093D5202989822B8093A8
:10081000D4209093D52081E063CF223009F077CFA8
:100820008091AC208093AB208C8183708093AC202E
:10083000C7010E94D50281E053CF5F926F927F92F1
:100840008F929F92AF92BF92CF92DF92EF92FF92E0
:100850000F931F93CF93DF93CDB7DEB76097CDBFD4
:10086000DEBF8C013091C2202091C3209091C42022
:100870008091C520E090C620F090C720C090C9208C
:10088000D090C02044E0D41609F467C045E0D416E7
:1008900009F42BC141E0D41609F42EC142E0D4166C
:1008A00009F43BC143E0D41609F430C1D1103CC176
:1008B0008090CA209090CB20A090CC20B090CD20EA
:1008C00081149104A104B10409F433C1512CBEEF89
:1008D0007B2EC501B40124E630E040E050E00E94E8
:1008E000BA15622E24E6629EC0011124AA2797FD44
:1008F000A095BA2F881A990AAA0ABB0AC501B401A1
:100900002AE030E040E050E00E94BA15422F2AE091
:10091000429FC0011124AA2797FDA095BA2F881ADB
:10092000990AAA0ABB0A8091AD20813009F434C12A
:10093000823009F44BC1833009F44DC1843009F48D
:100940005AC1853009F45CC1863009F467C1852D30
:1009500086294295407F482906C04091B020406CCE
:1009600089EAE0EF7E2E7B868C874D8780E1898344
:1009700081EC8A8389E28B8386E28C838091DB2001
:10098000882309F495C080FDADC090E320E081FF8D
:10099000922F82FD906C9D838091C120882309F461
:1009A00084C020E380E09091B6209111822F909135
:1009B000B5209111806C8E8381E08F83D1106BC044
:1009C0004091CA205091CB206091CC207091CD20D5
:1009D000452B462B472B29F48091B120882309F41D
:1009E00092C097013695279536952795ABE7B4E1E8
:1009F0000E94FB1596958795C886982F906C9987CD
:100A0000970144E6849F201931091124ADECBCEC18
:100A10000E94FB159695879596958795969587954F
:100A2000482F4295407F97010E94FB159695879528
:100A300096958795969587959C01220F331F880F71
:100A4000991F880F991F880F991F280F391FE21AC5
:100A5000F30A4E294A876DE0CE0101960E941D01DE
:100A60008E87F801E55FFE4F8081882319F180E0D1
:100A70006096CDBFDEBFDF91CF911F910F91FF90A8
:100A8000EF90DF90CF90BF90AF909F908F907F902E
:100A90006F905F900895C8868FE0898740E1D49E6B
:100AA000C00111248C608A87D6CF2CE38CE07BCFE9
:100AB00093E071CFD801A757BF4F8EE0FE0131966A
:100AC00001900D928A95E1F7F801EB57FF4F8EE008
:100AD00090E0808391833296108211820E94771574
:100AE00081E0C6CF9CE32CE052CF4091B120406C16
:100AF00083EA70EF772E37CF4091AD20406C85EAC6
:100B000060EF762E30CF81E38F836BCF4091AF20A3
:100B1000406C89EA30EF732E26CF4091AE20406CB6
:100B200089EA50EF752E1FCF4CEC8CECECEF7E2E4B
:100B30001ACF4091B120411142C08090BE209090C8
:100B4000BF20AA2497FCA094BA2CB7FC49C09CEF04
:100B5000792E88EE881683E09806A104B10460F12E
:100B6000C501B40128EE33E040E050E00E94BA1520
:100B700048EE53E0249FC001259F900D1124AA2721
:100B800097FDA095BA2F881A990AAA0ABB0A522E75
:100B9000529480EF58229DCE2091BA203091BB20F4
:100BA000ADECBCEC0E94FB157C01F694E794F69446
:100BB000E794F694E794CBCEA0EC5A2E8ACE41303F
:100BC00021F1832E922EA92EB82EBFCFE090CE20F9
:100BD000F090CF20BCCEE090D020F090D120B7CEC6
:100BE000B094A09490948094811C911CA11CB11C81
:100BF0002AEF722EAECFE090D220F090D320A7CE75
:100C0000E090D420F090D520A2CE8090BC2090908F
:100C1000BD20AA2497FCA094BA2C97CF8091BC2029
:100C20009091BD206AE070E00E94A6157B018FCEF6
:100C300010920006E0E0F2E091E09083118282835E
:100C400082E0848390A361A3089510920006E0E0FF
:100C5000F2E091E0908390E191838260828382E070
:100C6000848380A3646061A30895E0E0F2E091E0F2
:100C7000908390E191838260828382E0848383E029
:100C800080A388E081A3089510920006E0E0F2E0DE
:100C900081E080831182828382E0848310A211A28A
:100CA0000895809120028068809320028091230221
:100CB0008F70E1F380911002909111022FE0209348
:100CC00006020895809150008260809350008091C8
:100CD000510081FFFCCF88ED84BF81E0809340000C
:100CE000809150008E7F809350008091B4008C7F63
:100CF0008093B4000895A0E4B6E08FEF11968C9332
:100D00001197E0E0F8E084E0808383E0818384EA67
:100D100091E086A397A3809111209091122080A743
:100D200091A7809111209091122082A793A7809182
:100D300011209091122084A795A781E080939008BC
:100D4000E0E8F8E01186108687E0848380E450961E
:100D50008C93509752968C93529754968C930895F7
:100D60004F925F926F927F928F929F92AF92BF92BB
:100D7000CF92DF92EF92FF920F931F93CF93DF9367
:100D8000CDB7DEB72897CDBFDEBF20910420222348
:100D900009F42FC100E010E0812C912C5401412C6A
:100DA000512C3201C12CD12C760119821A821B825E
:100DB0001C8268E380E10E9418060E945106298186
:100DC0003A814B815C81280F391F411D511D2983B8
:100DD0003A834B835C8380E10E9435060E94510672
:100DE000880E991EA11CB11C0E9444060E94510647
:100DF000C80ED91EE11CF11C60E080E10E942506AE
:100E00000E945106AA2797FDA095BA2F480E591E99
:100E10006A1E7B1E0F5F1F4F20910420822F90E0DF
:100E20000817190730F2822F90E0A0E0B0E08D8320
:100E30009E83AF83B88769817A818B819C812D8164
:100E40003E814F8158850E94BA1529833A834B838E
:100E50005C83209368203093692040936A205093EC
:100E60006B20C301B2012D813E814F8158850E94C4
:100E7000DC1529013A0120935C2030935D204093DA
:100E80005E2050935F20C501B4012D813E814F81CA
:100E900058850E94DC15CA01B90124E630E040E023
:100EA00050E00E94BA1520938E2030938F204093FB
:100EB00090205093912080918A2090918B20A09136
:100EC0008C20B0918D20820F931FA41FB51F80939B
:100ED0008A2090938B20A0938C20B0938D20C70103
:100EE000B6012D813E814F8158850E94BA1520930D
:100EF0007C2030937D2040937E2050937F208091F2
:100F0000782090917920A0917A20B0917B20820F57
:100F1000931FA41FB51F8093782090937920A093EE
:100F20007A20B0937B2080914420909145200196B7
:100F30008093442090934520809164209091652077
:100F4000A0916620B091672029813A814B815C8114
:100F5000820F931FA41FB51F809364209093652078
:100F6000A0936620B09367208091582090915920DB
:100F7000A0915A20B0915B20840D951DA61DB71D30
:100F80008093582090935920A0935A20B0935B20CF
:100F900080914E2090914F20019680934E20909307
:100FA0004F2080914A2090914B20A0914C20B091ED
:100FB0004D20840D951DA61DB71D80934A2090934A
:100FC0004B20A0934C20B0934D202896CDBFDEBF80
:100FD000DF91CF911F910F91FF90EF90DF90CF9015
:100FE000BF90AF909F908F907F906F905F904F9049
:100FF0000895812C912C5401412C512C3201C12C8B
:10100000D12C760119821A821B821C820CCF10927D
:10101000992010929A208FEF9FEF809397209093C2
:1010200098201092962080EE8093620688E180934B
:10103000750680937606809377068091680685FF13
:1010400021C081E08093962085E091E020916806A0
:1010500026FF03C080939620982F8091680687FD15
:1010600014C080919520891719F081E08093942015
:1010700090939520992321F081E0973009F008950D
:1010800080E0089584E090E0E1CF92609093962014
:10109000E8CFCF93DF9300D000D0CDB7DEB70E946A
:1010A00062060E947B060E94F9148FEE90E20E9475
:1010B0007F01109200061092040682E080930002E5
:1010C0001092010210920202109203021092040286
:1010D000109220061092240627E0209340088DE00D
:1010E0008093430081E08093000480E090E8809347
:1010F0000C0490930D042093000980E491E0809308
:1011000026099093270983E08093060988ED84BF20
:1011100087E88093A200789484E0809396200E94D0
:10112000070883E290E080930A2090930B2020919F
:10113000002030910120F090B7201A82EE24E39431
:10114000198200E022242A94322C18E1EC8240918A
:101150001320509114208417950740F48091132098
:101160009091142080930A2090930B20409111209D
:10117000509112204817590740F480911120909106
:10118000122080930A2090930B20409111205091BF
:1011900012204217530740F4209111203091122061
:1011A000209300203093012040911320509114206F
:1011B0002417350740F420911320309114202093F8
:1011C0000020309301208093280890932908809371
:1011D0002A0890932B0880932C0890932D08109246
:1011E000992010929A202092972030929820109265
:1011F000962020EE209362061093750610937606D3
:10120000109377062091680625FFF8C421E020930B
:10121000962045E03091680636FF03C04093962043
:10122000242F3091680637FDECC430919520321799
:1012300019F031E03093942020939520222309F473
:1012400070C3273009F46DC33C8131110C94BA147A
:101250004A81442309F40EC53091052010922009DB
:1012600010922109311117C6243009F41EC608F066
:10127000E9C5223011F40C943311233009F019C55B
:1012800020938C0821E02093800827E320934606D2
:1012900028E0209345062091062080930820909313
:1012A00009202A3009F45FC38091DB20882309F4E8
:1012B000BDC351E05F255C830E94B006809068202A
:1012C00090906920A0906A20B0906B207DE38716F3
:1012D0007FE09706A104B10408F432C48FE3809341
:1012E000460610928C081092800880919F20909161
:1012F000A020A091A120B091A220826080939F2085
:101300009093A020A093A120B093A22089E0809385
:10131000062081E08C8380911020882309F4E0C3AB
:10132000409194204B834111D6C4C0905C20D09052
:101330005D20E0905E20F0905F2040903020509043
:10134000312060903220709033205AEF45165104BE
:101350006104710420F410921320109214208091E3
:101360001120909112202091AF206AE0269F8019D1
:101370009109112420911320309114208217930792
:1013800008F09CC4809113209091142020910804AF
:10139000309109042938334140F0109220201092F6
:1013A00021201092222010922320AB81AA2309F43D
:1013B00018C510924E2010924F2010924A20109281
:1013C0004B2010924C2010924D2010920804109245
:1013D00009041092942020919320211174C520912A
:1013E000A820222309F445C02091A520263008F426
:1013F00040C0409120205091212060912220709186
:101400002320463951056105710520F48091112092
:10141000909112203091A520409146205091472074
:10142000609148207091492048555F4F6F4F7F4F22
:1014300024EF230320011124662457FC6094762CAA
:10144000441555056605770514F40C943412209163
:101450000A2030910B202817390710F40C941D1323
:1014600071E187167EE09706A104B10410F00C9498
:101470005C1290910F209B83992309F48CC080917A
:10148000A620882371F0109293201092922010923F
:101490009F201092A0201092A1201092A2201092C2
:1014A000A6208091A420863008F475C0AEE98A1683
:1014B000A7E09A06A104B10410F40C949D12409187
:1014C000462050914720609148207091492080919A
:1014D000202090912120A0912220B0912320892BBF
:1014E0008A2B8B2B09F457C09A01AB012B52394F31
:1014F0004F4F5F4FA8EEB3E00E940A162EE131E095
:1015000040E050E00E94DC152252310941095109A6
:101510008091A4206091DB20869FC0011124AA271E
:1015200097FDA095BA2F281739074A075B0714F4CF
:101530000C94B8138091A420689FC0011124AA279D
:1015400097FDA095BA2F281739074A075B0714F0B3
:101550000C948C134091032080910A2090910B20D1
:1015600020911120309112208217930710F00C94D3
:10157000E312209111203091122050E0281B390BEA
:101580002417350710F40C94E312840F951F8093F1
:101590000A2090930B2080910E208111E3C480904B
:1015A0009F209090A020A090A120B090A220240184
:1015B0003501BFE94B225524662477242B81411441
:1015C00051046104710431F09091922091113DC356
:1015D00071E07C83811176C2222331F08091A420B6
:1015E000853010F461E06C8380914020909141201F
:1015F000A0914220B0914320C816D906EA06FB0606
:1016000044F4C0924020D0924120E0924220F092D7
:10161000432080913C2090913D20A0913E20B091AC
:101620003F208C159D05AE05BF0544F4C0923C20BB
:10163000D0923D20E0923E20F0923F208091A72062
:10164000882341F0809108209091092080930A20FE
:1016500090930B2020911E2030911F20ABEABAEA14
:101660000E94FB1596958795929582958F70892794
:101670009F70892780931C2090931D20809160206B
:10168000909161208093BA209093BB208091542048
:10169000909155208093BE209093BF208091502040
:1016A000909151208093BC209093BD208092CA20BD
:1016B0009092CB20A092CC20B092CD20C090202040
:1016C000D0902120E0902220F0902320C701B60185
:1016D00028EE33E040E050E00E94BA156093C62047
:1016E0007093C7208092DE204091A820442309F403
:1016F000F2C18091A5208093C92080911920809308
:10170000B6208091600890916108833C914008F474
:10171000C0C00F5F10926008109261088091AE20E7
:1017200090E0019652E3589F9001599F300D11248B
:10173000209311203093122080911120909112203B
:101740008639914030F0E5E9F1E0E0931120F09323
:1017500012208091A4209091DC209093A4208111EC
:1017600009C08091A420882329F0CD28CE28CF2835
:1017700009F4B5C01A828091B720882321F08091A6
:10178000DB20811127C0A3E2B0E0A0930020B0933A
:101790000120109217201092182080910A20909119
:1017A0000B2020911320309114202817390708F0BE
:1017B00040C32091132030911420FC01E21BF30B55
:1017C000E83CF10508F435C3885C910980930A2050
:1017D00090930B2045284628472831F083E290E07B
:1017E000809300209093012080911620882309F493
:1017F00082C310921620411111C080910F208823BE
:1018000069F08091A420853048F480910E208823CF
:1018100029F08091A920882309F42DC78FEE90E24A
:101820000E94B5028091FC21811121C380E8809340
:1018300046068091B8209091B92001968093B820F7
:101840009093B9208B30910508F0E8C320E42093F1
:101850004606C397A8F081E08093C1201092B7207C
:10186000109219201092A4201092A8201092A52066
:101870001092A9201092842010928520F1E0FC8320
:1018800029812F5F2983223009F423C5243009F4EC
:10189000CFC3003108F0CDC020910020309101204D
:1018A000F090B720809193208823A1F080919F2011
:1018B0009091A020A091A120B091A220806180935E
:1018C0009F209093A020A093A120B093A22089E014
:1018D0008093062080910A2090910B2038CC809133
:1018E0000A2090910B20209113203091142028176A
:1018F000390708F090C52091132030911420BC01C5
:10190000621B730B6431710508F0FEC680911320D1
:101910009091142080930A2090930B2071E07A8399
:101920002ACF40919F205091A0206091A1207091DA
:10193000A220406440939F205093A0206093A12058
:101940007093A22029E0209306203FE330934606BF
:1019500010928C08109280088093082090930920A0
:101960002A3009F0A1CC109289081092880887E0EB
:1019700080938408109220091092210980912020E0
:1019800090912120A0912220B0912320C09013207B
:10199000D09014200097A105B105A1F14C015D0183
:1019A000AA24BB24880C991CAA1CBB1CC501B40129
:1019B000660F771F881F991F660F771F881F991F53
:1019C000680D791D8A1D9B1D2AE030E040E050E043
:1019D0000E94BA15C20ED31E80911320909114203C
:1019E000C816D90620F4C0901320D09014208091FE
:1019F0001120909112208C159D0520F4C09011208B
:101A0000D0901220C0920A20D0920B20C0922808B9
:101A1000D0922908C0922A08D0922B08C0922C0894
:101A2000D0922D088091DB20811143CC61E06C8342
:101A300043CC80910F20F090B7208823B9F080919B
:101A4000A820811113C0FF2089F08091A4208B3041
:101A500068F080911A2090911B208431910508F044
:101A6000E5C4019680931A2090931B2020910020BA
:101A7000309101202550310920930020309301201E
:101A80008FE097E2A0E0B0E0809340209093412067
:101A9000A0934220B093432041EF58ED6FEF7FEFCA
:101AA00040933C2050933D2060933E2070933F2014
:101AB00080910620882309F4D3C0815080930620AA
:101AC00000E0F0CE2111A9C18091A92081118CCD17
:101AD00071E07C8389CD8091A4208093C9200DCEB4
:101AE000409108045091090460E070E080912C203E
:101AF00090912D20A0912E20B0912F208417950732
:101B0000A607B70708F481C020910F2080910E200E
:101B100080909F209090A020A090A120B090A22023
:101B2000240135014FE94422552466247724C090CE
:101B30005C20D0905D20E0905E20F0905F203FCD53
:101B400098E0891697E09906A104B10408F0E3CB68
:101B50008FE38093460610928C0810928008809143
:101B60009F209091A020A091A120B091A2208460FC
:101B700080939F209093A020A093A120B093A220B7
:101B800089E08093062080910A2090910B2020917B
:101B90001320309114202817390708F0C8C120916C
:101BA000132030911420DC01A21BB30BA83CB1051B
:101BB00008F4BDC1885C910980930A2090930B20A2
:101BC00020911320309114202817390708F0BFC145
:101BD0002091132030911420FC01E21BF30BE83C10
:101BE000F10508F06DC3809113209091142080932B
:101BF0000A2090930B20F1E0FC838DCB44E020E0A1
:101C000009CB22602093962010CB109208041092EA
:101C1000090420910F2080910E2080909F209090A9
:101C2000A020A090A120B090A220240135015FE95E
:101C30004522552466247724C0905C20D0905D20F6
:101C4000E0905E20F0905F20BACC9FE39093460630
:101C500010928C08109280089AE290934506BACCB4
:101C600010929F201092A0201092A1201092A220EA
:101C700000E018CE30919420332309F4F5C0309160
:101C800005201092200910922109311104C124303D
:101C900009F40BC108F0D6C0223009F4E4C22330A5
:101CA00041F423E0EDCA253009F4DDC2263009F005
:101CB000CFC020E320938C0824E0E5CA20911120B6
:101CC000309112202817390708F060CB809111203D
:101CD000909112205BCB80E88093470640910804E6
:101CE00050910904409338205093392060E070E00F
:101CF00040933420509335206093362070933720E2
:101D000040903020509031206090322070903320ED
:101D1000440E551E661E771E76946794579447941A
:101D200040923020509231206092322070923320C5
:101D30008091282090912920A0912A20B0912B20D9
:101D4000840F951FA61FB71F8093282090932920EA
:101D5000A0932A20B0932B208091242090912520BD
:101D6000A0912620B09127200196A11DB11D80933E
:101D7000242090932520A0932620B09327208091A3
:101D80001E2090911F20019680931E2090931F206B
:101D9000109208041092090420914E2030914F2097
:101DA0002115310509F4AEC040E050E060914A20B1
:101DB00070914B2080914C2090914D200E94DC1519
:101DC0002093462030934720409348205093492049
:101DD000C0905C20D0905D20E0905E20F0905F206D
:101DE000B4CA2091600830916108233C314008F06A
:101DF000F0CA20910F2080910E2080909F2090901B
:101E0000A020A090A120B090A220240135016FE96C
:101E10004622552466247724D2CB8091A420853095
:101E200008F0E2CB8091A9208111DECB81E08C8388
:101E3000DBCB809113209091142080930A20909303
:101E40000B20C8CC253009F452C2263009F031CF1E
:101E50002CE020938C0822E0209380082FE120932F
:101E6000460620E2209345062091062016CA40919E
:101E70007F2250E06DEF71E28FEE90E20E945A03F4
:101E800010927F221092FC21882309F4CFCC80E8A5
:101E900080934506FECC243009F403CF08F003CF2D
:101EA000223009F434C2233099F62CE020938C08B8
:101EB00022E0209380083DE33093460620934506B8
:101EC00020910620EAC98091A62081118EC0209120
:101ED0000F2080910E2080909F209090A020A090B5
:101EE000A120B090A220240135013FE943225524CE
:101EF0006624772464CB8FEE90E20E94C301409168
:101F0000A82079CC30915C2020915D2090915E20BA
:101F100080915F2030934620209347209093482063
:101F200080934920C32ED22EE92EF82E0ECA80911E
:101F300013209091142080930A2090930B202091DD
:101F40001320309114202817390708F441CE8091CE
:101F500013209091142080930A2090930B2031E05D
:101F60003C83D9C940918620509187206091882078
:101F7000709189208091172090911820A0E0B0E006
:101F800084179507A607B70720F4409317205093AE
:101F90001820433C51406105710508F07DC18091D6
:101FA000842090918520009709F462C10197809365
:101FB0008420909385202091A920222309F442C2F5
:101FC000892B09F0B3C180909F209090A020A09011
:101FD000A120B090A220240135013FE943225524DD
:101FE000662477242B8181E0EACA10929320109214
:101FF000922010929F201092A0201092A120109267
:10200000A2201092A62020910F2080910E20412C1A
:10201000512C3201812C912C5401DCCA0E94E9140C
:1020200080E4809345068091B8209091B92011CC2E
:10203000209128203091292040912A2050912B2056
:10204000211531054105510509F448C1609124204D
:10205000709125208091262090912720EFE0660F37
:10206000771F881F991FEA95D1F70E94BA15A0E142
:10207000B7E20E940A1627E539E140E050E00E94ED
:10208000BA15209320203093212040932220509392
:102090002320109228201092292010922A2010929A
:1020A0002B2010922420109225201092262010928E
:1020B0002720C0904420D0904520E12CF12C609145
:1020C0006420709165208091662090916720A7011F
:1020D00096010E94BA1529013A01109264201092CB
:1020E00065201092662010926720609158207091B0
:1020F000592080915A2090915B20A70196010E945F
:10210000DC1549015A011092582010925920109262
:102110005A2010925B2060918A2070918B208091D0
:102120008C2090918D20A70196010E94BA152093D2
:1021300086203093872040938820509389201092E6
:102140008A2010928B2010928C2010928D20209348
:10215000CE203093CF20809117209091182080932B
:10216000D0209093D12080910A2090910B208093D1
:10217000D2209093D3204C81842F90E08093D42060
:102180009093D520609178207091792080917A2069
:1021900090917B20A70196010E94BA15209374208C
:1021A00030937520409376205093772010927820BA
:1021B0001092792010927A2010927B201092442065
:1021C000109245205FEA451A510861087108A8EE8F
:1021D000B3E0A30192010E940A1626E733E040E033
:1021E00050E00E94BA1569017A0120936020309373
:1021F0006120409362205093632065ED860E66E077
:10220000961EA11CB11CA8EEB3E0A50194010E948A
:102210000A162EE131E040E050E00E94DC15225227
:10222000310941095109209354203093552040939E
:10223000562050935720C701B6010E94961520E101
:1022400037E240E050E00E94BA15209350203093CE
:10225000512040935220509353208FEE90E20E94E1
:102260001D04198216CB23E020938C0821E0F4CDC5
:102270001092A92080909F209090A020A090A12053
:10228000B090A220240135012FE942225524662472
:1022900077242B8181E093C9809120209091212087
:1022A000880F991F880F991F880F991F855B9F4F73
:1022B000809384209093852021E02093A92073CEE1
:1022C000885C910980930A2090930B2021E02C8355
:1022D00022C88FEE90E20E946C02DBCA109220208E
:1022E000109221201092222010922320D2CE20E39F
:1022F00020938C0824E0209380082DE32093460649
:1023000022E020934506209106200C944D0930E3ED
:1023100030938C0834E0309380083DE330934606D8
:1023200020934506209106200C944D094EE9841611
:1023300047E09406A104B10408F43CC24091462051
:102340005091472060914820709149208091202031
:1023500090912120A0912220B0912320892B8A2BBB
:102360008B2B09F46FC0B090DB209A01AB012B528C
:10237000394F4F4F5F4FA8EEB3E00E940A162EE18F
:1023800031E040E050E00E94DC1522523109410961
:10239000510964E6B69EC0011124AA2797FDA095B5
:1023A000BA2F281739074A075B070CF462C26091FD
:1023B000032080910A2090910B20209113203091CE
:1023C000142028173907B0F540911320509114209C
:1023D000262F30E0DC01A41BB50BA217B30708F0D1
:1023E00097C2809113209091142080930A2090939B
:1023F0000B2080909F209090A020A090A120B090D2
:10240000A22024013501BFE94B22552466247724FC
:102410002B8181E0D4C88091132090911420809367
:102420000A2090930B2091E09A83A5C981E08093C4
:1024300019201CCB809113209091142080930A20A6
:1024400090930B2080909F209090A020A090A1209E
:10245000B090A22024013501FFE94F2255246624C3
:1024600077242B8181E0ABC82091022080910A2043
:1024700090910B20409111205091122084179507C4
:1024800008F0ABC0409111205091122030E0481B61
:10249000590B4217530708F4A0C0280F391F209387
:1024A0000A2030930B2071E187167EE09706A10485
:1024B000B10410F40C94390A4091022046958091A1
:1024C0001120909112202817390708F09AC08091A6
:1024D000112090911220642F70E0821B930B8617BD
:1024E000970708F48EC0260F371F20930A203093D9
:1024F0000B2085E788168EE09806A104B10410F43D
:102500000C94390A809111209091122028173907D4
:1025100008F06DC0809111209091122050E0821B34
:10252000930B8417950708F462C0240F351F20937E
:102530000A2030930B200C94390AE0910320EE0F0F
:1025400080910A2090910B2020911320309114202B
:102550002817390708F068C0609113207091142083
:102560004E2F50E09C01261B370B2417350708F42B
:102570005BC0841B950B80930A2090930B203CE654
:10258000831637E09306A104B10410F00C945F0A9F
:10259000209113203091142028173907D8F5409145
:1025A0001320509114202E2F30E0BC01641B750BBA
:1025B0006217730778F1821B930B80930A20909324
:1025C0000B200C945F0A809111209091122080932F
:1025D0000A2090930B200C94CB0A2091112030916B
:1025E000122020930A2030930B200C94300A809103
:1025F00011209091122080930A2090930B200C942C
:10260000390A209111203091122020930A20309312
:102610000B206FCF809113209091142080930A207B
:1026200090930B200C945F0A8091132090911420BA
:1026300080930A2090930B20A2CF8091022040919A
:102640001320509114204217530708F087C040917F
:1026500013205091142090E0B901641B750B68178A
:10266000790708F47BC0281B390B20930A2030938C
:102670000B200C94300A8091202090912120A09171
:102680002220B0912320E0901320F0901420009796
:10269000A105B105A1F14C015D01AA24BB24880C60
:1026A000991CAA1CBB1CC501B401660F771F881FAB
:1026B000991F660F771F881F991F680D791D8A1D46
:1026C0009B1D2AE030E040E050E00E94BA15E20E87
:1026D000F31E8091132090911420E816F90620F43F
:1026E000E0901320F09014208091112090911220FE
:1026F0008E159F0520F4E0901120F0901220E092BA
:102700000A20F0920B208AC8449780930A20909365
:102710000B2081E08A832FC82091032080910A201A
:1027200090910B2040911320509114204817590785
:1027300008F083C0409113205091142030E0DC0158
:10274000A41BB50BA217B30708F477C0821B930B29
:1027500080930A2090930B200C94CB0A2091132095
:102760003091142020930A2030930B200C94300ACF
:102770002091032040910A2050910B20809111203C
:10278000909112204817590708F01DCF8091112011
:1027900090911220220F30E0841B950B8217930733
:1027A00008F411CF240F351F20930A2030930B20FB
:1027B0000C94CB0A60910320660F20910A2030917F
:1027C0000B2080911320909114208217930708F01A
:1027D00047C08091132090911420462F50E0D901DA
:1027E000A81BB90BA417B507D8F1C901841B950B19
:1027F00080930A2090930B20BCE68B16B7E09B06D3
:10280000A104B10408F09ACD209113203091142036
:1028100028173907E0F4209113203091142070E03C
:10282000FC01E21BF30BE617F70788F0861B970BFA
:1028300080930A2090930B2081CD8091132090915A
:10284000142080930A2090930B200C94CB0A809143
:1028500013209091142080930A2090930B206ECD2A
:10286000809113209091142080930A2090930B2044
:10287000C3CF4091032080910A2090910B2020919A
:102880001120309112208217930738F520911120E2
:1028900030911220440F50E0281B390B24173507C4
:1028A00008F04FC0809111209091122080930A204F
:1028B00090930B2080909F209090A020A090A1202A
:1028C000B090A220240135017FE9472255246624D7
:1028D00077242B8181E00C94DF0A80911120909164
:1028E000122080930A2090930B2080909F2090903C
:1028F000A020A090A120B090A220240135019FE942
:1029000049225524662477242B8181E00C94DF0A28
:10291000821B930B80930A2090930B2080909F2022
:102920009090A020A090A120B090A2202401350179
:10293000EFE94E225524662477242B8181E00C9404
:10294000DF0A840F951F80930A2090930B208090BC
:102950009F209090A020A090A120B090A2202401C0
:1029600035018FE948225524662477242B8181E0A4
:102970000C94DF0A209106200C94A50C1F920F9254
:102980000FB60F9211242F933F938F939F9383E25F
:1029900090E08093132090931420809113209091C5
:1029A000142020910A2030910B202817390740F479
:1029B000809113209091142080930A2090930B20F3
:1029C0009F918F913F912F910F900FBE0F901F906D
:1029D0001895809115208C3D30F088EC809315205F
:1029E0008093A60A08958F5F809315208093A60A8E
:1029F000089588E0E0E8F6E08183E0EAFAE01382F7
:102A00008091AA20878380911520868383E0858327
:102A100088E184838CE3838308951F920F920FB61D
:102A20000F9211242F933F934F935F936F937F9354
:102A30008F939F93AF93BF93EF93FF936091A00AFF
:102A40008FEE90E20E94F501FF91EF91BF91AF915F
:102A50009F918F917F916F915F914F913F912F91B6
:102A60000F900FBE0F901F9018951F920F920FB6E8
:102A70000F9211242F933F938F939F93EF93FF9384
:102A80008091FA21813061F1833069F01092FA214E
:102A9000FF91EF919F918F913F912F910F900FBEDA
:102AA0000F901F9018958091762190917721209119
:102AB0007421309175212817390741F3FC01E8583A
:102AC000FE4D20812093A00A2081203119F421E0BD
:102AD0002093FA2101968093762190937721D8CF85
:102AE00080E18093A00A83E08093FA21D1CF809186
:102AF000FA2181111AC083E08093FA218091762116
:102B000090917721209174213091752128173907F0
:102B100051F0209178212093A00A0196809376218C
:102B20009093772108951092FA210895DB018F93F5
:102B30009F930E940A16BF91AF91A29F800D911D95
:102B4000A39F900DB29F900D1124089597FB072E1F
:102B500016F4009407D077FD09D00E94151607FCE3
:102B600005D03EF4909581959F4F0895709561959D
:102B70007F4F0895A1E21A2EAA1BBB1BFD010DC0B9
:102B8000AA1FBB1FEE1FFF1FA217B307E407F5071D
:102B900020F0A21BB30BE40BF50B661F771F881FF9
:102BA000991F1A9469F760957095809590959B018F
:102BB000AC01BD01CF010895052E97FB1EF40094D2
:102BC0000E94F31557FD07D00E94BA1507FC03D0E9
:102BD0004EF40C94F31550954095309521953F4F48
:102BE0004F4F5F4F089590958095709561957F4FF9
:102BF0008F4F9F4F0895A29FB001B39FC001A39F25
:102C0000700D811D1124911DB29F700D811D112425
:102C1000911D08950E94FB15A59F900DB49F900DE6
:102C2000A49F800D911D11240895AA1BBB1B51E187
:102C300007C0AA1FBB1FA617B70710F0A61BB70B2C
:102C4000881F991F5A95A9F780959095BC01CD01D1
:102C50000895FB01DC0102C001900D9241505040EB
:082C6000D8F70895F894FFCFA6
:102C680028000A0108010A9195019501E204010171
:062C78000195012300C8D4
:00000001FF
